:100000000C943D030C945A030C945A030C945A0319
:100010000C945A030C945A030C945A030C945A03EC
:100020000C945A030C945A030C9411150C94C51992
:100030000C942B2B0C945A030C945A030C945A03D3
:100040000C945A030C945A030C945A030C945A03BC
:100050000C945A030C94E8150C945A030C945A030C
:100060000C945A030C945A030C945A030C945A039C
:100070000C945A030C945A030C945A030C945A038C
:100080000C945A030C945A030C945A030C945A037C
:100090000C945A030C945A030C945A030C945A036C
:1000A0000C945A030C945A030C945A0305010980CA
:1000B000A101850319012AB700150126B700950192
:1000C00075108100C0050C0901A101850419012AE0
:1000D000A002150126A002950175108100C005013E
:1000E0000906A1018505050719E029E71500250185
:1000F0009508750181020507190029EF15002501F2
:1001000095F075018102050819012905950575010C
:100110009102950175039101C005010902A1010930
:1001200001A100050919012905150025019505758D
:10013000018102950175038101050109300931151D
:1001400081257F95027508810609381581257F95DF
:100150000175088106050C0A38021581257F950175
:1001600075088106C0C005010906A101050719E04F
:1001700029E715002501950875018102950175088B
:1001800081010507190029FF150026FF0095067556
:100190000881000508190129059505750191029549
:1001A0000175039101C0000101010101010101017B
:1001B0000202020202020202020303030303030318
:1001C00003040404040404040505050505060606E5
:1001D0000606070707070708080808090909090AA2
:1001E0000A0A0B0B0B0C0C0C0D0D0D0E0E0E0F0F47
:1001F0000F101011111112121313141415151616D5
:100200001717181819191A1A1B1B1C1D1D1E1E1F43
:100210002020212222232424252626272829292A92
:100220002B2C2D2D2E2F30313232333435363738BA
:10023000393A3B3C3D3E3F404142434445464748B6
:10024000494A4C4D4E4F50515354555658595A5B8C
:100250005D5E5F616264656668696B6C6D6F70722C
:10026000737577787A7B7D7E8082838587888A8C98
:100270008E8F91939596989A9C9EA0A2A3A5A7A9CC
:10028000ABADAFB1B3B5B7BABCBEC0C2C4C6C9CBC3
:10029000CDCFD1D4D6D8DBDDDFE2E4E7E9EBEEF079
:1002A000F3F5F8FAFDFF2E002B002900E100E061D4
:1002B00000001E00140004001D61356428051F00A5
:1002C0001A0016001B0014662A0020000800070010
:1002D000060050002C0021001500090019004F00F5
:1002E0004C00220017000A00050000006564500061
:1002F00001530000000F0000E3004F000253000014
:1003000000070000E20023001C000B0011000000A9
:100310002961240018000D00100052004B00250038
:100320000C000E00360051002800260012000F00BD
:1003300037002F002B0027001300334238713000A4
:100340004E002D0031003468E50001510000290005
:10035000010001000100010000003A001E0220021D
:1003600022022E002F5D3B001F022102230201000A
:10037000CA5C3C002F0226022F000100CB5C3D002E
:1003800030022702300001002E5D3E0031023500B0
:1003900035020000C45C0100010000000100000003
:1003A0002D5D01000100000001000000C35C3F0062
:1003B00052005100240200002C5D40002400210066
:1003C0001E00010001004100250022001F0037002F
:1003D000C65C42002600230020002700C75C4300C3
:1003E00025022E0231002E00350844004500010090
:1003F0000100010000000100010001000100A60051
:1004000000000100010001000100095D0100010080
:100410000100F2000100010001000100F000F10004
:100420000100F400010001000100F3000100F500EB
:1004300001000100010001000100000001000100B5
:1004400001000000010000000100010001000000A7
:100450000100000001000100010001000100000096
:1004600001000100010001000100A90001000100DC
:1004700001000100AC00AA00B6000100010001006B
:10048000AB00A80001000100010001000100010013
:100490000100005C0100AE000100010000000A0044
:1004A000000000000306B200080001000000A800E0
:1004B000080002000300A0001400030057494E5535
:1004C000534200000000000000000000840004000F
:1004D00007002A004400650076006900630065009B
:1004E00049006E00740065007200660061006300E0
:1004F00065004700550049004400730000005000AB
:100500007B003900440042003700460031004600BD
:1005100044002D0037004500370041002D00340015
:100520003000300038002D00390033003600420022
:100530002D003600420041003600430031003900F2
:10054000410033003000380063007D0000000000EF
:100550001B0301636F6E6669677572652E6572674E
:100560006F646F782D657A2E636F6D0009026B00E2
:10057000040100A0FA09040000010301010009219F
:10058000110100012240000705810308000A090447
:1005900001000103010200092111010001224D00A7
:1005A0000705820308000A09040200010300000095
:1005B000092111010001226D000705830320000AB3
:1005C0000904030002FF0000000705840340000542
:1005D00007050503400005120110020000000897FE
:1005E00032764901000102000120034500720067D4
:1005F000006F0044006F007800200045005A002082
:100600000047006C006F007700000030035A005371
:10061000004100200054006500630068006E006F18
:10062000006C006F006700790020004C00610062E0
:10063000007300200049006E0063000000040309FD
:1006400004050F3900021C100500DF60DDD8894564
:10065000C74C9CD2659D9E648A9F00000306B20031
:1006600045001810050038B60834A909A0478BFDCD
:10067000A0768815B6650001420011241FBECFEF99
:10068000DAE0DEBFCDBF25E0A8E1B3E001C01D92F6
:10069000AD3AB207E1F713E0A0E0B1E0E8EFFDE525
:1006A00002C005900D92A831B107D9F70E949B278F
:1006B0000C94A22E0C940000E8EDF0E080818E7F77
:1006C00080831092E2001092DA001092E100A0EE16
:1006D000B0E08C9181608C9380818F77808319BC8E
:1006E000A7EDB0E08C918E7F8C9380818F7E80838C
:1006F00010926E0508952091E4003091E50095E692
:10070000A9012091EC00822F817020FF06C080910A
:10071000E80080FF06C080E008952091E80022FDF7
:100720001AC080919305882389F0853089F08091E3
:10073000EB0085FD0FC02091E4003091E5004217E9
:100740005307F9F29150E1F684E0089582E00895AC
:1007500083E0089581E00895EF92FF920F931F9335
:10076000CF937C018B010E947B03C82F882371F0FB
:100770008C2FCF911F910F91FF90EF900895F7016B
:1007800081917F018093F10001501109011511053C
:1007900079F38091E80085FDF2CF8091E8008E77B3
:1007A0008093E8000E947B03882381F3C82FE0CF69
:1007B0008091950587FF13C08091E80082FF06C0F5
:1007C0008091E8008B778093E80004C080919305C6
:1007D0008111F2CF0895809193058823D9F38091F8
:1007E000E80080FFF8CF8091E8008E77ECCF982F5B
:1007F0009093E900242F762F50E0891731F0709103
:10080000EC002091ED005091F00021FD07C09F5FAA
:10081000973071F78093E90081E008953091EB0003
:100820003E7F3093EB003091ED003D7F3093ED0043
:100830003091EB0031603093EB007093EC0020932B
:10084000ED005093F0002091EE0027FDE0CF80E016
:100850000895CF92DF92EF92FF920F931F93CF9361
:10086000DF93C8EDD0E088818F7E8883E7EDF0E0EC
:1008700080818160808384E082BF81E080936E0507
:1008800088818E7F888302EE10E0F801108210923A
:10089000DA0081EEC82ED12CF601108288818F7784
:1008A000888388818068888388818F7D888319BC4C
:1008B0001092930510929405109292051092910552
:1008C00090EEE92EF12CF70180818B7F8083888167
:1008D0008160888342E060E080E00E94F703F601D7
:1008E00080818E7F8083F801808181608083808118
:1008F00088608083F70180818E7F8083888180611A
:100900008883DF91CF911F910F91FF90EF90DF903F
:10091000CF900895FC0180919B0590919C058617CE
:100920009707A0F06115710529F48091E8008E7792
:100930008093E80090E06115710551F4911108C0B1
:100940008091E80082FF35C080E00895BC01F2CFBD
:10095000809193058823C9F18530C9F18091E80021
:1009600083FD31C08091E80082FDEACF8091E800EC
:1009700080FFE1CF8091F3002091F200382F6115C4
:10098000710519F02830310558F091E02830310513
:1009900009F090E08091E8008E778093E800CBCF5B
:1009A00084918093F1003196615071092F5F3F4F20
:1009B000E6CF80919305882341F0853041F0809106
:1009C000E80083FFBDCF81E0089582E0089583E0D1
:1009D0000895FC0180919B0590919C0586179707CF
:1009E000A0F06115710529F49091E8009E7790932D
:1009F000E80090E06115710551F4911108C08091F3
:100A0000E80082FF34C080E00895BC01F2CF8091FD
:100A100093058823C1F18530C1F18091E80083FD01
:100A200030C08091E80082FDEACF8091E80080FF2D
:100A3000E1CF8091F3002091F200382F611571050C
:100A400019F02830310558F091E02830310509F0CF
:100A500090E02091E8002E772093E800CBCF8191A1
:100A60008093F100615071092F5F3F4FE7CF809174
:100A70009305882341F0853041F08091E80083FFA1
:100A8000BECF81E0089582E0089583E008958091CB
:100A90007005089520919305243091F42093E90086
:100AA00070E050E040E00E94AC03882321F01092F7
:100AB0006C0510926D058091E8008E778093E800B8
:100AC000089590915305803F59F48091540587FF14
:100AD0000DC01092540591110BC010924F0508C023
:100AE000813F81F48091540518169CF3992381F07D
:100AF0008091550590915605892B09F064C010929C
:100B00004C050895823F49F497FFF0CF10925305AA
:100B1000809154058111ECCFE0CF833F19F4191671
:100B2000ACF3E4CF20915505893F29F41216F4F671
:100B300010925505DBCF8A3F19F427FFD7CFF8CFA6
:100B4000209156058B3F29F427FFD0CF10925605F0
:100B5000CDCF8C3F19F41216CCF3C8CF843F31F4BB
:100B6000809152058E7F80935205C0CF853F21F43E
:100B7000809152058D7FF7CF863F21F480915205F9
:100B80008B7FF1CF873F21F480915205877FEBCF98
:100B9000883F21F4809152058F7EE5CF8D3F31F45F
:100BA000809123058E7F80932305A0CF8E3F21F473
:100BB000809123058D7FF7CF8F3F09F097CF8091EC
:100BC00023058B7FF0CF08958091230580FD1AC007
:100BD00081FD14C082FD14C080914C05882391F0E2
:100BE0008C3370F427E0829FC00111246CE370E025
:100BF0000E94462C862F672B29F0089583E00895E4
:100C000087E0089581E008958091230580FD16C056
:100C100081FD16C082FD18C080914F05882391F098
:100C20008C3390F423E2829FC00111246CE370E0C6
:100C30000E94462C862F672B49F0089588E008957E
:100C400081E1089585E0089583E2089581E00895A3
:100C5000803F31F40E9404068195809354050895E5
:100C6000813F19F40E940406F8CF823F31F40E94BC
:100C700004068195809353050895833F19F40E94DB
:100C80000406F8CF893F29F40E94E40580935505B6
:100C900008958A3F21F40E94E4058195F7CF8B3FA8
:100CA00031F40E94E40581958093560508958C3FA8
:100CB00019F40E94E405F8CF843F31F48091520585
:100CC0008160809352050895853F21F480915205FB
:100CD0008260F7CF863F21F4809152058460F1CF86
:100CE000873F21F4809152058860EBCF883F21F443
:100CF000809152058061E5CF8D3F31F480912305CD
:100D000081608093230508958E3F21F4809123050F
:100D10008260F7CF8F3FB9F7809123058460F1CFD0
:100D20009C014FB7F89480911F0590912005A091E8
:100D30002105B09122054FBF821B930B089520918E
:100D400018012223C9F02091380527FF15C0E62F8E
:100D5000E695E695E695EE31D8F4E80FF92FF11D0A
:100D6000677021E030E001C0220F6A95EAF7209514
:100D70008281282322830895FC01329608962191CE
:100D8000621303C0DF0111971C92E817F907B9F746
:100D90000895209118012223C1F02091380527FFE2
:100DA00014C0E62FE695E695E695EE31F8F4E80FE7
:100DB000F92FF11D677021E030E001C0220F6A9524
:100DC000EAF78281822B82830895FC0132962FEF0D
:100DD00030E04191641751F02F3F19F4411101C0E7
:100DE000232F3F5F3630A9F72F3F09F40895820F74
:100DF000911D27FD9A95FC0162830895CF92DF92A1
:100E0000EF92FF926C01EE24FF2420E0C114D10484
:100E1000E104F10419F0C701B60120E1C72ED82E74
:100E2000E92EFF24C114D104E104F10419F0285F74
:100E3000C701B6016B017C0154E0F694E794D794A6
:100E4000C7945A95D1F7C114D104E104F10419F003
:100E50002C5FC701B6016B017C0142E0F694E79478
:100E6000D794C7944A95D1F7C114D104E104F10491
:100E700019F02E5FC701B60196958795779567950E
:100E8000672B682B692B09F02F5F822FFF90EF9063
:100E9000DF90CF90089580911A05811110921A0564
:100EA00008958091190590911805892B9091170547
:100EB000892B8093180390911A059923A1F0892B0F
:100EC0008093180380911801882341F1809138059F
:100ED00087FF24C08EE1EAE1F3E090E0815000F565
:100EE00091110E944B07E0913A05F0913B05309734
:100EF000E1F080911801882359F08091380587FF2F
:100F000007C0809118038093190385E0809318032C
:100F10000280F381E02D88E193E0099486E0DBCF45
:100F200021912223D9F29F5FD9CF0895E92FEE0FA7
:100F3000E90FEE0F8E0F982F977086958695869500
:100F400025E0829FF0011124E152FB4F50E040E088
:100F500080E0219130E0092E02C0369527950A9451
:100F6000E2F721703327042E01C0220F0A94EAF71A
:100F7000822B4F5F5F4F4530510559F70895E92F98
:100F8000EE0FE90FEE0F8E0F982F977041E001C022
:100F9000440F9A95EAF786958695869595E0899F00
:100FA000F0011124E152FB4F30E020E070E051915C
:100FB000DF011197CB01022E02C0969587950A9406
:100FC000E2F7817081958527842385278C932F5F95
:100FD0003F4F2530310559F708958091DE049091F7
:100FE000AD04981301C008958F5F8770FACF8823EE
:100FF00041F08095909119058923809319050C94EF
:1010000051070895882339F090911905982B9093F2
:1010100019050C94510708952091A4043091A5045A
:101020002817390771F09093A5048093A404E091E8
:101030003A05F0913B05309721F00084F185E02DD1
:10104000099408952091A2043091A3042817390728
:1010500071F09093A3048093A204E0913A05F0917B
:101060003B05309721F00680F781E02D0994089523
:10107000E0913A05F0913B05309721F00190F08125
:10108000E02D099480E00895FA01811101C0FB016F
:1010900009948033910538F5880F991F880F991F9F
:1010A000FC01EC5CFE4F5281338180818370E181D1
:1010B000A82FB0E070E9879FC0011124845A9C4F8B
:1010C000E80FF92FF11DB4976083FC01E50FF11DC6
:1010D000B4974083830F911DFC01B4972083A65AD7
:1010E000BC4F81E08C930895FF920F931F93CF9391
:1010F000DF93182F062FF42ED0E0C0E02F2D402FC5
:10110000612FCE010E9449082196C033D105B1F765
:10111000DF91CF911F910F91FF9008950C94740867
:101120000C9449080F931F9310E0F801EE0FFF1F76
:10113000E857FD4F9081905797FD9195000F111F33
:10114000F801E757FD4F00810052110B2003F00119
:10115000219FF00D112408E310E0091B110997FDF0
:10116000139540039001419F300D1124E20FF31FAE
:101170009F01220F331F2E0F3F1F37FF02C0215840
:101180003F4F220F232F221F330B620F1F910F910E
:1011900008950F931F93522F10E0F801EE0FFF1FD9
:1011A000E757FD4FA081A052BB0B9D015203F001F8
:1011B000539FF00D1124000F111FD801A857BD4FE8
:1011C0000C910057110B40039001419F300D1124E9
:1011D0002E0F3F1F37FF02C0215C3F4F96E0359531
:1011E00027959A95E1F7620F1F910F9108950F933C
:1011F0001F93522F10E0F801EE0FFF1FE757FD4F2E
:10120000A081A052BB0B9D015203F001539FF00D32
:101210001124000F111FD801A857BD4F0C91005782
:10122000110B40039001419F300D11242E0F3F1FE1
:1012300037FF02C021583F4F220F232F221F330BAD
:10124000620F1F910F910895EF920F93972F23E054
:10125000029FB0011124759567956E0D792F0F913E
:10126000EF900895322F50E0FA01EE0FFF1FE7577D
:10127000FD4F9081905297FD9195440F551FFA01B3
:10128000E857FD4F2081231B330B290F311D97FD9C
:101290003A95620F0895E42FF0E0EE0FFF1FE75735
:1012A000FD4F6081621B0895E42FF0E0EE0FFF1FF9
:1012B000E857FD4F6081621B0895622F0895E42F67
:1012C000F0E0EE0FFF1FE857FD4F408134EE439FE3
:1012D000412D1124E82FF0E050E0445E5F4FDA0129
:1012E000A21BB1099D01B7FF03C0319521953109BA
:1012F00093E0220F331F9A95E1F7AF01421B530B86
:101300009A0157FD20E0582F259F212D1124822F6F
:101310000895E42FF0E0EE0FFF1FE857FD4F4081E6
:1013200034EE439F412D1124E72FF0E050E0445E5E
:101330005F4FDA01A21BB1099D01B7FF03C03195D0
:101340002195310993E0220F331F9A95E1F7AF0100
:10135000421B530B9A0157FD20E0279F212D11249A
:10136000722F0895FC019B01009729F480E077FF1C
:101370002BC080E80895AC0197FF04C0442755278F
:10138000481B590BB901640F751F37FD10C0241B92
:10139000350BC901A5E0880F991FAA95E1F70E94B6
:1013A000462C80E2861BF7FF0FC081950895CB0184
:1013B00065E0880F991F6A95E1F7BA01621B730B0C
:1013C0000E94462C80E6EECF0895EF920F93CF93C4
:1013D000DF93D72FC82FC9010E19BA010E94B20995
:1013E000602F681B7D2F8C2FDF91CF910F91EF9095
:1013F00008950F93CF93DF93D72FC82FC901BA0158
:101400000E94B209682F600F7D2F8C2FDF91CF9142
:101410000F910895EF920F931F93CF93DF93D62FE1
:10142000C72F182FC9010E19010FBA010E94B20966
:10143000081B202F219F212D1124822F6D2F7C2FFF
:10144000DF91CF911F910F91EF900895EF920F933D
:101450001F93CF93DF93D62F172FC82FC9010E19D3
:10146000070FBA010E94B209702F781B719F712D6E
:1014700011246D2F8C2FDF91CF911F910F91EF9041
:1014800008950F931F93CF93DF93D62FC72F182F55
:10149000C901212F201B022FBA010E94B209982FE7
:1014A000990F990F891B800F282F219F212D11241F
:1014B000822F6D2F7C2FDF91CF911F910F91089577
:1014C0000F931F93CF93DF93D62F172FC82FC901E8
:1014D000272F201B022FBA010E94B209982F990FC3
:1014E000990F782F791B700F719F712D11246D2F1B
:1014F0008C2FDF91CF911F910F910895E82F86FDDA
:10150000E0952E2F2F7086FD2F5FE695E695E695E8
:10151000E670F0E0E45DFE4F9181929F902D212DC9
:10152000112492959F702295207F922B2081920FFB
:1015300087FD919580E8890F0895AC01823091056F
:1015400008F408959FEF413E8EE1580740F49A0158
:1015500095E0369527959A95E1F798E0920F61E02E
:10156000E62FE90FFF27FF1F9F0135952795822F53
:10157000229FF001239FF00DF00D11244E175F07FD
:1015800038F49FEF920F961758F78FEF860F089554
:101590002F3FE9F361E0620FF6CF0F93CF93DF9314
:1015A000D72FC82F47FD419588E390E0841B910910
:1015B00047FD9395889FB001899F700D700D112490
:1015C000229FC001239F900D900D1124860F971F1D
:1015D0000E949D0A982F990F890F682F600F7D2F09
:1015E0008C2FDF91CF910F91089530E020E0869FFE
:1015F000212D969F200D311D1124C9010895AF9210
:10160000BF92CF92DF92FF920F931F93CF93DF93FE
:10161000362F472FE82FF0E0EA55FE4F71110FC02B
:10162000E4918E2F2E2F6E2F722FDF91CF911F916D
:101630000F91FF90DF90CF90BF90AF900895C72F8C
:10164000D0E02491F22E022F10E056E0659FC001F9
:101650001124EFEFF0E0BF010E94322C832F90E0C5
:10166000880F991F35E5369FD001379FB00D1124A3
:101670008A1B9B0B982F990F980F6F01CC1ADD0ACC
:10168000C09ED001C19EB00DD09EB00D11248B2FF5
:10169000499FA0011124452F55276F01C41AD50A6F
:1016A000C09EA001C19E500DD09E500D11245F011F
:1016B000A91AB108AC9E6001AD9ED00CBC9ED00CA6
:1016C0001124CD2CDD24EC19FD09E09FE001E19F00
:1016D000D00DF09FD00D1124ED2F62307105A1F0D7
:1016E00050F46115710509F49ECF6130710581F0E8
:1016F000EB2F852F98CF6430710569F080F066304C
:10170000710509F490CFF4CFE22F2B2F8D2F8BCFC3
:10171000E22F252F88CFEB2F822F2D2F84CF2B2F39
:101720008F2DE52F80CF9F92AF92BF92CF92DF9205
:10173000EF92FF920F931F93CF93DF936C018091F1
:101740001901C82FCC0FCC0FC80F15E01C0FB12EFC
:10175000113310F030E3B32E6091A80566956695BD
:101760008091A0059091A1050E94F50AF82E80E4D1
:101770008F0D0E947E0A90E8A92EA80E8F2D0E9440
:101780007E0A20E8922E980ED0E0CB1580F081E002
:10179000103308F080E0DF91CF911F910F91FF90FF
:1017A000EF90DF90CF90BF90AF909F900895FE0193
:1017B000E851FD4F808190911A018923A1F0609139
:1017C000A5057091A6058091A705EF2C0C2F292D5A
:1017D0004A2DF60109950E94FF0A462F282F672FF0
:1017E000CE010E9490082196D0CF7F928F929F9237
:1017F000AF92BF92CF92DF92EF92FF920F931F931F
:10180000CF93DF935C0180911901C82FCC0FCC0FCF
:10181000C80F15E01C0FF12E113310F030E3F32E3A
:101820006091A80566958091A0059091A1050E9400
:10183000F50A782ED0E0CF1590F081E0103308F053
:1018400080E0DF91CF911F910F91FF90EF90DF909B
:10185000CF90BF90AF909F908F907F900895FE01A2
:10186000E851FD4F808190911A018923C9F1CE0181
:10187000880F991F8C5C9D4FFC01EC5AFF4F208113
:10188000422F4057550B6A018B5A9F4FFC018081B4
:10189000282F2052330B4901449F9001459F300D62
:1018A000300D1124889CC001899C900D900D11244D
:1018B000820F931F0E949D0A082F6091A5057091C9
:1018C000A6058091A705E72C9401A601F5010995CD
:1018D0000E94FF0A462F282F672FCE010E949008F2
:1018E0002196A9CFCF92DF92EF92FF920F931F9391
:1018F000CF93DF937C0180911901C82FCC0FCC0FBF
:10190000C80F15E01C0FD12E113310F030E3D32E89
:101910006091A80566958091A0059091A1050E940F
:10192000F50AC82ED0E0CD1568F081E0103308F03C
:1019300080E0DF91CF911F910F91FF90EF90DF90AA
:10194000CF900895FE01E851FD4F808190911A01DA
:10195000892311F1CE01880F991F8C5C9D4FFC01EA
:10196000EB5AFF4F20812052330B8C5A9F4FFC01C2
:1019700040814057550B6091A5057091A605809157
:10198000A7050C2DF70109950E94FF0A462F282F65
:10199000672FCE010E9490082196C5CFDF92EF926B
:1019A000FF920F931F93CF93DF937C0180911901D6
:1019B000C82FCC0FCC0FC80F15E01C0F012F11330F
:1019C00008F000E36091A805669566958091A005F2
:1019D0009091A1050E94F50AD82ED0E0C01760F0C2
:1019E00081E0103308F080E0DF91CF911F910F91DB
:1019F000FF90EF90DF900895FE01E851FD4F808148
:101A000090911A01892391F06091A5057091A60526
:101A10008091A7052D2D4C2FF70109950E94FF0AF3
:101A2000462F282F672FCE010E9490082196D6CFEF
:101A30009091380592FF06C0282F28712830F9F4BC
:101A4000877F846093FF06C0282F28712831F1F426
:101A5000877E84612091390520FF06C0382F3871B8
:101A60003830D9F4877F816021FF06C0282F287184
:101A70002831D1F4877E816194FD877E0895282FD7
:101A800024712430F9F68B7F8860DCCF282F2471F5
:101A9000243101F78B7E8861DDCF382F31713130F1
:101AA00019F78E7F8860E0CF282F2171213121F72F
:101AB0008E7E8861E1CFCF93DF93972F70E026E091
:101AC000929F600D711D1124FB0134E5839FE00D91
:101AD000F11D1124EE0FFF1FEA55FD4FC591D49162
:101AE000CE01C238D105B9F1E8F5C133D10509F409
:101AF00099C050F5C932D10509F48DC0CA32D1055B
:101B000009F497C0C11521E5D20708F0BFC0C1157F
:101B100030E5D30708F016C1C83ED10508F09DC0D6
:101B2000C03ED10568F5C83AD10508F089C0C53A6C
:101B3000D10508F0FFC0C130D10511F1209709F49B
:101B400043C02497E8F440C0C533D10509F45CC014
:101B5000C933D105B9F620913805237089F080EE9C
:101B600090E00EC0C33ED10591F168F4C03ED105AE
:101B7000F9F0C23ED10531F62091380522FD20C092
:101B8000DF91CF910895C63ED10561F1C73ED105E1
:101B900081F1C43ED10509F0B5CF2091390521FF6F
:101BA000EFCF8091380584FD0FC087EE90E0E8CF3D
:101BB0002091380520FD12C13091390530FFE0CF6A
:101BC00083EE90E024FFDCCF90E080E0D9CF20913D
:101BD000380522FD06C13091390530FDC0CF24FF04
:101BE000CFCFF2CF2091380523FFCACF24FDECCF11
:101BF000DCCF2091380523FDF7C03091390531FF46
:101C0000EECF84EE90E0BCCF2091380525FFB8CF11
:101C100089E290E0B5CF2091380525FFB1CF85E36B
:101C200090E0AECF2091380526FFAACF8AE290E05F
:101C3000A7CF2091380526FFA3CF81E390E0A0CF66
:101C4000CF3BD10508F6C85AD0E0CC0FDD1FC950F4
:101C5000DE4F88819981946493CFC11520E2D20729
:101C600060F4C11531E0D30708F08ACFCE0190654A
:101C7000C03FD10508F084CFA7CFC11580E4D807B5
:101C800008F4A2CFCE019F70906A7ACFC11595E576
:101C9000D90710F5C11524E5D20708F088C0C11591
:101CA00033E5D30708F06FC0C11582E5D80708F403
:101CB00065C09E012370332781E090E002C0880F49
:101CC000991F2A95E2F7C695C69520E2C29FE001CA
:101CD00011248C2B9D2B50C0C11599E5D907A0F478
:101CE000C11528E5D20708F067C0C11536E5D3074E
:101CF00008F06ACF8C2F0E94180D90E0982F88274B
:101D000088279F7190623CCFC1158AE5D80708F4F7
:101D100058C0CE0190568115904208F055CF8D2FB6
:101D20008F710E94180D90E0982F882788279F7147
:101D30008C2BE8CFC55AD0E0CC50DE4F888190E0A4
:101D400090641ECF9E01E4E036952795EA95E1F771
:101D500023708C2F86958695837030E2839FC00117
:101D60001124922BC37021E030E002C0220F331FF8
:101D7000CA95E2F7822B932B9C6802CF9C2F882771
:101D8000816F906AFDCE9E012370332781E090E041
:101D900002C0880F991F2A95E2F7C695C69530E2D2
:101DA000C39FE00111248C2B9D2B9A68E9CE9C2FB8
:101DB0008827846F906AE4CE9C2F8827806F906A72
:101DC000DFCE8C2F8F700E94180D34E0D695C7950A
:101DD0003A95E1F7CF709C2F9069D2CE89E390E0DD
:101DE000CFCE82EE90E0CCCE86EE90E0C9CEBF9210
:101DF000CF92DF92EF92FF920F931F93CF93DF93D7
:101E00008C01C0906705D0906805E0906905F0905E
:101E10006A0580911B0590911C05A0911D05B0914C
:101E20001E05C82AD92AEA2AFB2ACFE1D0E0BC2E17
:101E3000D701C6010C2E04C0B695A7959795879536
:101E40000A94D2F780FD0EC0219788F7B12C8B2D14
:101E5000DF91CF911F910F91FF90EF90DF90CF9086
:101E6000BF900895B8018C2F0E945B0D019761F31C
:101E7000EECFCF93DF93EC010E94F70EBE01DF910E
:101E8000CF910C945B0D0E94390F292F2F709295E2
:101E90009F7092509E3078F4E92FF0E0EC55F14DB0
:101EA0000C945A2C803F19F020F4883E20F481E0F5
:101EB0000895843FE1F380E00895883EC0F3813FB8
:101EC000D1F7F5CF822F8695869586950895279828
:101ED0002F98089526982E98089525982D9808955E
:101EE00056985E980895279A2F9A0895269A2E9AC2
:101EF0000895259A2D9A0895CF92DF92EF92FF923E
:101F0000CF936B017C010E94FE06C82F0E94700FC8
:101F10000E946D0F0E946A0F0E94670FC150C73068
:101F200040F4EC2FF0E0EE54F14D0C945A2C0E944A
:101F3000790FC701B601CF91FF90EF90DF90CF905E
:101F400008950E94790F0E94760FF3CF0E94790FB7
:101F50000E94730FEECF0E94790F0E94760FF8CF88
:101F6000209828982198299822982A9823982B9885
:101F700052985A9853985B983E984698089580983E
:101F8000889A8198899A84988C9A85988D9A86984F
:101F90008E9A87988F9A0895CF93DF9300D00F92EF
:101FA000CDB7DEB790919305943019F589837B8383
:101FB0006A8383E08093E9008FEF9091E80081507D
:101FC00095FD06C095ED9A95F1F700008111F5CFCA
:101FD0008091E80085FF0DC050E040E063E070E0D4
:101FE000CE0101960E94AC038091E8008E77809329
:101FF000E8000F900F900F90DF91CF910895BC01F2
:1020000084E00C94CC0FBC0183E00C94CC0F9C01B9
:1020100082E08093E9009FEF8091E800915085FD78
:1020200006C085ED8A95F1F700009111F5CF8091FA
:10203000E80085FF0CC050E040E065E070E0C901B9
:102040000E94AC038091E8008E778093E8000895A9
:10205000CF93DF93EC01809118018823B1F1809137
:10206000380587FF32C060E283E08093E9008FEF9C
:102070009091E800815095FD06C095ED9A95F1F795
:1020800000008111F5CF8091E80085FF1BC0809191
:10209000180170E050E040E0811104C050E040E0E1
:1020A00068E070E0CE010E94AC038091E8008E777A
:1020B0008093E80080E2FE01A1E7B5E001900D9277
:1020C0008A95E1F7DF91CF91089568E081E0CDCF67
:1020D000EF92FF920F931F93CF93DF930E94700FA5
:1020E0000E946D0F0E946A0F0E94670F88E8E82E19
:1020F000F12C8FEF90E0F701918380830AE810E0E4
:10210000F80191838083CCE8D0E0998388830E9492
:10211000790FFFEF20E782E0F15020408040E1F7A7
:1021200000C000000E94760F9FEFE0E7F2E09150C0
:10213000E040F040E1F700C000000E94730F2FEF75
:1021400080E792E0215080409040E1F700C000001D
:102150000E946D0FEFEFF0E722E0E150F0402040E9
:10216000E1F700C000000E946A0F8FEF90E7E2E005
:1021700081509040E040E1F700C000000E94670FEE
:10218000809126058770FFEF8F9FC00111249595E0
:102190008795959587959927F70191838083F80115
:1021A00091838083998388830E94700F0E946D0FB2
:1021B0000E946A0FDF91CF911F910F91FF90EF90D6
:1021C0000C94670FCF9384E090E00E94F72DC82F06
:1021D00081E290E00E94F72D982F8C2FCF910895E7
:1021E0006FEE7EEF90E080E00E94392E60E082E0AA
:1021F00090E00E941B2E60E083E090E00E941B2E86
:1022000010921B0510921C0510921D0510921E05C0
:1022100060E084E090E00E941B2E60E081E290E0AC
:102220000E941B2E60E085E090E00E941B2E60E083
:1022300086E090E00E941B2E6FEF87E090E00E9406
:102240001B2E40E050E0BA0188E090E00E942D2E65
:1022500060E08DE090E00E941B2E40E050E0BA016B
:1022600088E190E00E942D2E60E087E190E00E94DE
:102270001B2E40E050E0BA018CE190E00E942D2E30
:1022800060E080E290E00E941B2E40E050E0BA0146
:1022900088E190E00E942D2E1092260510922705CD
:1022A000109228051092290584E08061809326050C
:1022B00040912605509127056091280570912905C8
:1022C0008FE090E00E942D2E40E050E0BA0183E1C3
:1022D00090E00C942D2E0F931F93CF93DF93082F34
:1022E000000FEB0114E210934603E7E4F3E0DE0194
:1022F0008D91819383E0E735F807D1F724E630E04C
:1023000041E150E066E473E0802F0E94072C105FEB
:102310006096143B41F7DF91CF911F910F91089583
:1023200080915A03882329F06CE573E084E70E94CA
:102330006B1110925A0380915B03882329F06CEE95
:1023400073E087E70E946B1110925B030895E6E447
:10235000F3E06083418324E630E042E050E0BF01D7
:10236000880F0C94072CEF92FF920F931F93CF933B
:10237000DF93E82E062F10E000561B4FF8018081F6
:10238000882381F0F2E16F9FE0011124C458DB4FF4
:10239000F12C49916F2D8E2D0E94A711F39482E1AB
:1023A000F812F7CFF8011082DF91CF911F910F91B2
:1023B000FF90EF900895CF93DF93C82F4BE06DEF20
:1023C0000E94A71140E06AE08C2F0E94A7118FE3C2
:1023D0009CE90197F1F700C0000040E060E08C2F1D
:1023E0000E94A71140E061E08C2F0E94A71140E0FD
:1023F00066E08C2F0E94A71140E06DEF8C2F0E94A9
:10240000A711D0E040E06D2F8C2F0E94A711DF5F55
:10241000D231C1F740E06D2F8C2F0E94A711DF5FF2
:10242000D432C1F740E06D2F8C2F0E94A711DF5FDF
:10243000D43BC1F74BE06DEF8C2F0E94A71141E018
:102440006AE08C2F0E94A71140E06DEF8C2FDF9186
:10245000CF910C94A7116F927F928F929F92AF921F
:10246000BF92CF92DF92EF92FF920F931F93CF9381
:10247000DF930E94522B84E70E94DB1187E70E94C2
:10248000DB1164E3E62E61E0F62ED12CC12C72E163
:10249000772EE8E08E2E912CAA24A394B12C6624EA
:1024A0006394F701418150E0CA018497028104528C
:1024B000110BC381C452DD0BF601EE0FFF1FEE0FAF
:1024C000FF1FEC5CFE4F2081237030E0FC0197FD84
:1024D000379643E0F595E7954A95E1F7729EA0019E
:1024E000739E500D112444585B4FE40FF52FF11DDE
:1024F000B4010E94462CA50101C0440F8A95EAF759
:102500008081842B8083F80117FD379693E0F59541
:10251000E7959A95E1F7729EC001739E900D112484
:1025200084589B4FE80FF92FF11DC801B4010E9498
:10253000462CA50101C0440F8A95EAF78081842BBF
:102540008083FE01D7FD379683E0F595E7958A9560
:10255000E1F7729EC001739E900D112484589B4F29
:10256000E80FF92FF11DCE01B4010E94462CA50100
:1025700001C0440F8A95EAF78081842B808320561E
:102580003B4FF9016082FFEFCF1ADF0A84E0E80ECB
:10259000F11CE0E3CE16D10409F083CF60E084E7BC
:1025A0000E94B31161E087E7DF91CF911F910F91F6
:1025B000FF90EF90DF90CF90BF90AF909F908F9063
:1025C0007F906F900C94B3111F93CF93DF93EC0126
:1025D000FC01E851FD4F80816823A1F00E94AC2CE2
:1025E000182F0E94AC2C612F782F8091A7050E9494
:1025F000FF0A462F282F672FCE01DF91CF911F9121
:102600000C949008DF91CF911F910895DF92EF9283
:10261000FF920F931F93CF93DF938C01FC01E8513E
:10262000FD4F8081682381F1D090A605D091A70548
:10263000C091A505EC2EF12C0E94AC2C282FC701CF
:102640008C549F4F68E671E00E94462C8E199F09BA
:1026500097FD0396959587959595879523706C2F93
:10266000289F600D11247D2D8D2F0E94FF0A462F7B
:10267000282F672FC801DF91CF911F910F91FF90F5
:10268000EF90DF900C949008DF91CF911F910F9104
:10269000FF90EF90DF90089545E050E06CE170E02E
:1026A00084EA95E00C940B2E9091A405937041F070
:1026B0008093A5056093A6054093A7050C944C1341
:1026C0000895E4EAF5E0438120E1421B08F440E08C
:1026D0008181628190E00C945413E4EAF5E0438137
:1026E00020E1420F08F44FEF8181628190E00C9469
:1026F0005413E4EAF5E0628120E1621B08F460E033
:102700008181438190E00C945413E4EAF5E0628106
:1027100020E1620F08F46FEF8181438190E00C9417
:102720005413E4EAF5E08181438162818850990B7A
:102730000C945413E4EAF5E0818190E043816281D6
:1027400008960C9454139091A405937089F081110C
:1027500007C094609093A40510921C010C944C1334
:10276000893110F09066F6CF880F880F982BF2CF42
:1027700008958091A40586958695815009F488E195
:102780000C94A3138091A405869586958F5F89315B
:1027900008F081E00C94A3130C94A313E4EAF5E091
:1027A000248130E1230F08F42FEF24830C944C1381
:1027B000E4EAF5E0248130E1231B08F420E02483DF
:1027C0000C944C13E4EAF5E085E3808380911D01CD
:1027D00090911E01A0911F0181839283A3838CE3BA
:1027E00084830C944C130E942B1290E080E00E9492
:1027F000052E8F3E9E4F21F00E94F0100E94E213A2
:1028000045E050E06CE170E084EA95E00E94E72D3D
:102810008091A4058C7F11F40C94E213089580E25A
:1028200090E090930D0180930C0180913803811109
:102830000EC00E94522B81E0809338032FEF83ED6E
:1028400090E3215080409040E1F700C0000064E632
:1028500070E080E40E94582B90930D0180930C014E
:10286000892B09F04EC064E670E080E00E94B42B32
:1028700090930D0180930C01892B09F042C064E60E
:1028800070E080E00E94B42B90930D0180930C01C6
:10289000892BB9F564E670E08FE30E94B42B909326
:1028A0000D0180930C01892B61F50E942E2C64E6AA
:1028B00070E080E40E94582B90930D0180930C01EE
:1028C000892BF9F464E670E08CE00E94B42B9093BD
:1028D0000D0180930C01892BA1F464E670E080E087
:1028E0000E94B42B90930D0180930C01892B49F425
:1028F00064E670E08FE30E94B42B90930D01809307
:102900000C010E942E2C80910C010895CF93C82FAA
:10291000873070F580910C0190910D01892B89F51C
:1029200064E670E080E40E94582B90930D01809340
:102930000C01892BD1F464E670E082E10E94B42B93
:1029400090930D0180930C01892B79F481E090E044
:1029500001C0880FCA95EAF764E670E080950E948E
:10296000B42B90930D0180930C01CF910C942E2CDD
:102970008A30B9F040F4883071F0893079F0209ACB
:102980002898CF9108958C3091F070F08D30B9F780
:102990003E9A4698F6CF219A2998F3CF229A2A9800
:1029A000F0CF239A2B98EDCF529A5A98EACF539AA8
:1029B0005B98E7CFCF93873050F580910C019091D1
:1029C0000D01C0E0892B71F464E670E081E40E949F
:1029D000582B90930D0180930C01892B31F0C0E0AE
:1029E0000E942E2C8C2FCF91089584E690E00E94B7
:1029F000E32B97FF05C090930D0180930C01EFCF5F
:102A0000C82FC09510920D0110920C01E9CFCFB1E3
:102A10008FB1869586958C73C3708C2BC82FC0950B
:102A2000E1CF1F920F920FB60F9211242F933F9375
:102A30004F935F936F937F938F939F93AF93BF93C6
:102A4000EF93FF938091E10082FF09C08091E20043
:102A500082FF05C08091E1008B7F8093E10080912F
:102A6000DA0080FF24C08091D80080FF20C08091D0
:102A7000DA008E7F8093DA008091D90080FF9BC0BE
:102A800080E189BD82E189BD09B400FEFDCF81E00E
:102A90008093930580916E05811109C00E945C03AB
:102AA0000E9429048091E20084608093E20080917A
:102AB000E10080FF17C08091E20080FF13C0809189
:102AC000E2008E7F8093E2008091E200806180933B
:102AD000E2008091D80080628093D80019BC85E024
:102AE000809393058091E10084FF29C08091E200EA
:102AF00084FF25C080E189BD82E189BD89B5982F19
:102B0000917080FFFBCF8091D8008F7D8093D8009B
:102B10008091E1008F7E8093E1008091E2008F7EC2
:102B20008093E2008091E20081608093E2008091D6
:102B30009405882309F445C084E08093930580912F
:102B4000E10083FF27C08091E20083FF23C08091D2
:102B5000E100877F8093E10082E0809393051092EB
:102B600094058091E1008E7F8093E1008091E200E6
:102B70008E7F8093E2008091E20080618093E2008A
:102B800042E060E080E00E94F7038091F0008860FE
:102B90008093F000FF91EF91BF91AF919F918F9142
:102BA0007F916F915F914F913F912F910F900FBE49
:102BB0000F901F90189519BC1092930510926E05F6
:102BC00076CF8091E30087FD93E090939305B7CF94
:102BD00078941F921FB61F9211248F939F93AF93E7
:102BE000BF9380911F0590912005A0912105B09180
:102BF00022050196A11DB11D80931F05909320050C
:102C0000A0932105B0932205BF91AF919F918F9121
:102C10001F901FBE1F9018952FB7F89480911F0525
:102C200090912005A0912105B09122052FBF089514
:102C30000E940C169C019091530580915405982B8D
:102C400021F03093510520935005909155058091C6
:102C50005605982B21F030934E0520934D05E091B9
:102C60003A05F0913B05309731F00480F581E02D75
:102C700082E595E0099408951092180510921705C1
:102C80000E94510785E0E2E5F5E0DF011D928A959B
:102C9000E9F710924F0510924C05109223050E94FF
:102CA000181690E080E00E94220890E080E00C94EA
:102CB0000C08CF92DF92EF92FF92CF93DF9300D078
:102CC00000D0CDB7DEB70E947C0F6B017C018091F4
:102CD0006B05882321F080916C05811115C0C0928D
:102CE0006705D0926805E0926905F0926A050E9436
:102CF0003C160F900F900F900F90DF91CF91FF90A7
:102D0000EF90DF90CF900895198282E08A83C70107
:102D1000B6010E94FE068B838EEF8C8364E0CE01A9
:102D200001960E944A05DBCF0F931F9341E050E0CC
:102D300060E070E004C0440F551F661F771F8A953E
:102D4000D2F7CB01BA01609570958095909500916E
:102D50006705109168052091690530916A05602327
:102D60007123822393231F910F910C9459169091F4
:102D700016058095892380931605282F277071F4F6
:102D8000282F082E000C330B9217130639F0859567
:102D9000859585950E9494161092160508950F93B7
:102DA0001F9341E050E060E070E004C0440F551F05
:102DB000661F771F8A95D2F7809167059091680505
:102DC000A0916905B0916A058A019B01082B192B16
:102DD0002A2B3B2BC901B8011F910F910C94591656
:102DE00060931B0570931C0580931D0590931E0531
:102DF0000C943C161092190580911801EAE1F3E059
:102E0000882359F08091380587FF07C08EE1DF01E4
:102E10001D928A95E9F70C943C1686E0F8CF1F9333
:102E2000CF93DF93CDB7DEB7AA970FB6F894DEBF86
:102E30000FBECDBF85E995E02091F100FC01219303
:102E4000CF01F5E08D399F07B9F78091960589305C
:102E500009F444C018F5823009F4B9C0833009F48C
:102E60006EC0813031F580919505813A11F58091E0
:102E7000E800877F8093E8008091990590919A05FA
:102E8000892B41F560E281E795E070E00E94E9045A
:102E90008091E8008B778093E8000BC08B3009F4B9
:102EA0006BC008F483C0823409F4A2C0853409F4ED
:102EB000BCC08091E80083FF50C28091950590913D
:102EC00096059A3008F049C2E92FF0E0E754F14D39
:102ED0000C945A2C60E090E080E0D7CF809195056B
:102EE000813239F78091990590919A05009711F0F8
:102EF0000297F9F68091E800877F8093E80080913F
:102F0000E80082FF17C09091F3008091F2000297D1
:102F100029F48091F1008B7F813021F48091F100C0
:102F2000809370058091E8008B778093E8000E9481
:102F3000D803BFCF809193058111E1CFBACF8091A3
:102F40009505813A09F0B5CF8091990590919A0540
:102F5000892B09F0AECF8091E800877F8093E8004D
:102F60008091E80080FFFCCF809118018093F100F0
:102F70008091E8008E77D9CF80919505813209F054
:102F800098CF8091990590919A05892B09F091CF5E
:102F90008091E800877F8093E8000E94D8038091A9
:102FA0009705809318010E94FA1683CF80919505AA
:102FB000813209F07ECF8091E800877F8093E8001E
:102FC0000E94D8038091980580936F0572CF8091FD
:102FD0009505813A09F06DCF8091E800877F809355
:102FE000E8008091E80080FFFCCF80916F05BECFA4
:102FF00080919505803C09F05CCF80919905909176
:103000009A05029739F58091970590919805892B3B
:1030100009F58091E800877F8093E8006BE170E01C
:1030200080E595E00E948A0482CF80919505803CDE
:1030300009F03FCF8091990590919A05079751F437
:103040008091E800877F8093E80062EB70E08EE972
:1030500094E0E8CF8091EB0080628093EB0029CF71
:10306000803899F0823809F078C1809199058F7085
:10307000873008F072C18093E9008091EB0085FBF6
:10308000882780F91092E90006C0809191059091FF
:103090009205911182609091E800977F9093E800EB
:1030A0008093F1001092F1008091E8008E7751C179
:1030B000882309F43FC1823009F04FC18091970500
:1030C000811142C1809199058F702FEF280F263012
:1030D00008F043C18093E9002091EB0020FF34C148
:1030E000933031F48091EB0080628093EB002CC12F
:1030F0009091EB0090619093EB0021E030E001C0F3
:10310000220F8A95EAF72093EA001092EA00809154
:10311000EB008860EACF811120C1109197051F77DD
:103120008091E3008078812B8093E3008091E80018
:10313000877F8093E8000E94D8038091E80080FF99
:10314000FCCF8091E30080688093E30082E011115E
:1031500083E08093930501C18058823008F0FDC060
:1031600080919705909198058C3D23E09207A1F5F9
:1031700083E08A838AE289834FB7F894DE0113964D
:1031800020E03EE051E2E32FF0E050935700E4915D
:1031900020FF03C0E295EF703F5FEF708E2F90E04D
:1031A000EA30C0F0C7968D939D932F5F243159F775
:1031B0004FBF8091E800877F8093E8006AE270E06B
:1031C000CE0101960E94E9048091E8008B778093FC
:1031D000E800C3C0C096E7CF2091990530919A05C9
:1031E000492F55274330510551F1A0F44130510585
:1031F00009F459C06BE670E08CE695E04230510569
:1032000009F0ABC02091E800277F2093E8000E94DE
:103210008A04DACF4132510539F14232510591F138
:103220004F30510509F099C0E3E4F6E0649170E095
:1032300081E496E06115710509F48FC0E3CF992709
:103240008130910571F0009731F0029709F085C047
:10325000E9EEF5E002C0EDE3F6E0649170E0CF0145
:10326000E9CFEBE0F6E0F9CF2330310508F075C087
:10327000220F331FF901E25DFD4F8081918169E0EA
:1032800070E0C0CF2330310508F067C0F901EE0FC0
:10329000FF1FE85DFD4F808191812B5D3D4FF9015E
:1032A000608170E0C7CF62E170E087ED95E0AACF62
:1032B000803809F052C08091E800877F8093E80051
:1032C000809194058093F100EFCE811146C010915A
:1032D0009705123008F041C08091E800877F809305
:1032E000E800109394050E94D803112311F084E0A4
:1032F00005C08091E30087FDFACF81E080939305BC
:1033000042E061EC81E00E94F70342E061EC82E080
:103310000E94F70342E261EC83E00E94F70342E37C
:1033200061EC84E00E94F70342E360EC85E00E94D8
:10333000F70313C080919705813079F481E09330D1
:1033400009F080E0809392051092E9008091E800F6
:10335000877F8093E8000E94D8038091E80083FF74
:103360000AC08091E800877F8093E8008091EB009D
:1033700080628093EB00AA960FB6F894DEBF0FBE72
:10338000CDBFDF91CF911F9108951F920F920FB67D
:103390000F9211242F933F934F935F936F937F93DB
:1033A0008F939F93AF93BF93CF93DF93EF93FF934D
:1033B000D091E900DF708091EC00C82FC17080FDD2
:1033C000C0E81092E9008091F000877F8093F000C0
:1033D00078940E940F171092E9008091F0008860A5
:1033E0008093F000CD2BCF70C093E900FF91EF9157
:1033F000DF91CF91BF91AF919F918F917F916F910D
:103400005F914F913F912F910F900FBE0F901F90A2
:1034100018958823B1F19CEF980F913A38F4682FF2
:1034200088E193E00E949F060C94510790E2980F68
:10343000983088F4877021E030E0A90102C0440F81
:10344000551F8A95E2F7CA01809590911905892345
:1034500080931905E9CF9BE5980F933020F490E015
:1034600080E00C94220898E5980F973120F490E0C2
:1034700080E00C940C08803F20F00E9461050C94C1
:1034800018160895CF93C82F882309F46EC08CEFC7
:103490008C0F813AB8F580911801882311F1809141
:1034A000380587FF1EC0EC2FE695E695E695F0E01F
:1034B000E85EFC4F828190E04C2F477021E030E0C5
:1034C00002C0220F331F4A95E2F782239323892BF0
:1034D00089F06C2F88E193E00E949F060E945107BB
:1034E00009C0EAE1F3E08191C81799F383E0E03283
:1034F000F807C9F76C2F88E193E00E94C906CF91C5
:103500000C94510780E28C0F883068F4C77021E07A
:1035100030E001C0220FCA95EAF780911905822B8D
:1035200080931905ECCFEBE5EC0FE33040F4F0E0CD
:10353000EC50FE4F808190E0CF910C942208E8E59A
:10354000EC0FE73150F4F0E0EE0FFF1FE950FE4FB3
:1035500080819181CF910C940C08C03F30F08C2F6A
:103560000E942806CF910C941816CF9108950F93BE
:103570001F93CF93DF93C62FD42F022FFC0182819C
:103580008823A1F060939F050E940C1690939E05DE
:1035900080939D05C77081E001C0880FCA95EAF746
:1035A000DF91CF911F910F910C94020880919F059C
:1035B000681338C080919D0590919E050E949006E9
:1035C000883C910578F510E21D0FCD17B9F080E227
:1035D0008C0F883040F4C77081E001C0880FCA9515
:1035E000EAF70E94F707183048F481E09D2F9770A2
:1035F00001C0880F9A95EAF70E940208802F0E9466
:10360000421A802F0E94091A183098F4D77081E06E
:1036100001C0880FDA95EAF7DF91CF911F910F91E2
:103620000C94F707C77081E001C0880FCA95EAF7CC
:10363000F3CFDF91CF911F910F9108954F925F9239
:103640006F927F928F929F92AF92BF92CF92DF92B2
:10365000EF92FF920F931F93CF93DF9300D000D090
:103660000F92CDB7DEB77C01FC0183819481892B59
:1036700039F01081D180812F8D218F3F09F0E4C571
:103680000F900F900F900F900F90DF91CF911F919F
:103690000F91FF90EF90DF90CF90BF90AF909F90F1
:1036A0008F907F906F905F904F9008950E94F70EDB
:1036B000082F682F89819A810E94BF07E12FF0E0CF
:1036C00026E0D29EE00DF11D112434E5039FE00DAC
:1036D000F11D1124EE0FFF1FEA55FD4F05911491C6
:1036E00080916B05882321F080916C05811198C52C
:1036F0000A32FDE51F07D9F10B322DE5120709F457
:10370000BEC0033C3CE5130709F0E1C0F70182812C
:103710008823E9F090911A01809126059F3F09F0D6
:10372000CFC010921A018F7E8093260540E060E0A2
:1037300080E00E948E0840912605509127056091F7
:103740002805709129058FE090E00E942D2E809130
:103750001605877009F494CFF7018281882309F454
:103760008FCF82E00E94B7168BCF81E15FC5F70152
:1037700082818823C9F18091260591E0980F977086
:10378000887F953008F4892B809326058091260543
:103790008770FFEF8F9FC0011124959587959595B0
:1037A00087959927909389008093880090938B0048
:1037B00080938A0090938D0080938C004091260521
:1037C0005091270560912805709129058FE090E0C0
:1037D0000E942D2E609167057091680580916905A2
:1037E00090916A050E947C0FF7019281992309F458
:1037F0003CC510929F050230FCE51F0708F4C3C1C9
:1038000006312CE5120738F098012B5F3C45273034
:10381000310508F0B8C10E94E210909339058093F9
:1038200038050F303CE5130709F48EC108F008C1D4
:1038300008309CE5190709F471C108F0DDC00430B7
:10384000FCE51F0709F45EC108F0C3C002303CE587
:10385000130709F44FC103301C4509F44FC16091AF
:1038600038051091390584E090E00E941B2E612FED
:1038700081E290E00E941B2E0E94FA1668CFF701A9
:103880008281882309F4B0CF90912605892F877F04
:1038900093FF88608093260583FF05C040E060E0C9
:1038A00080E00E948E084091260550912705609186
:1038B0002805709129058FE090E00E942D2E94CF6D
:1038C0009FEF90931A0180618093260534CF0D32CB
:1038D000FDE51F0709F440C008F50C323DE513076C
:1038E00091F1043FFCE51F0709F464C008F050C0E3
:1038F000093D3CE5130709F459C00A3D8CE518075A
:1039000009F464C0083D9CE5190709F06DCF26E273
:1039100041EE61EEC7010E94B71A19CF0E328DE554
:10392000180749F10F329DE51907D9F6F701828191
:10393000882309F40CCF81E00E94CC134FEF6FEF86
:103940008BE190E015C0F7018281882309F4FFCE56
:1039500081E00E94CC13FBCEF7018281882309F419
:10396000F6CE81E00E94CC134FEF6FEF8CEA90E02F
:103970000E945413ECCEF7018281882309F4E7CE2C
:1039800081E00E94CC1340E86FEF86E590E0F0CF35
:10399000063FECE51E07B1F088F0073F2CE5120763
:1039A00009F022CF27E245EE66EEB4CF27E245EEDE
:1039B00065EEB0CF26E241EE60EEACCF27E245EEF9
:1039C00064EEA8CF26E241EE62EEA4CF28E241E009
:1039D000EFCF80913805806106309CE5190709F426
:1039E00047C080913805886007301C4508F440C006
:1039F0008091380580623CC00B30FCE51F0709F45C
:103A00009BC068F409303CE5130709F48BC00A3009
:103A10001C4509F024CF809138058C6029C0809125
:103A200038058B7F0D309CE5190711F18091380521
:103A30008D7F0E301C45E0F080913805877F18C0DF
:103A40000B3FFCE51F0709F461C060F502313CE55E
:103A5000130709F481C078F400319CE5190709F4D3
:103A600077C0809138058F7B01311C4509F0F7CE76
:103A700080933805F4CE0431FCE51F0709F47AC0C1
:103A800008F470C005311C4509F0E9CE8091380575
:103A900082FB992790F921E0922790FB82F990FB15
:103AA00083F9E6CF0E3F8CE5180709F449C070F49E
:103AB0000C3FECE51E0771F1809139058E7F0D3FBB
:103AC0001C4509F0CCCE80933905C9CE01152DE5F2
:103AD000120709F44BC060F101301D4509F0BFCE5B
:103AE00080913905982F909591708E7F892B90FB4E
:103AF00081F9E9CF809138058160BACF809138058E
:103B00008260B6CF809138058460B2CF809139054C
:103B10008160D9CF809139058260D5CF80913805F9
:103B20008064A6CF0E94FA16809138058068A0CFE5
:103B3000809139058360C7CF809138058E7F98CFFB
:103B4000809139058D7FBFCF809138058F7E90CFD2
:103B5000809138058F7D8CCF0E94FA1680913805B0
:103B60008F7786CF80913805837F82CF809139050A
:103B70008C7FA9CF0E94FA1690913805892F97FB68
:103B800087F9805875CF809119050631ECE51E073D
:103B900009F079C38A7A91E009F490E09093A60441
:103BA00069E2811165E388E193E00E94C9060E9401
:103BB0005107CDCD8091A40591E089278093A4057C
:103BC00010921C010E944C13C2CD49EB53E162ECF0
:103BD00073E10E944408BBCD42EC53E169EB73E111
:103BE000F8CF41E953E16AE973E1F3CF4AE953E1E0
:103BF00061E973E1EECF49E753E165E873E1E9CFAD
:103C000045E853E169E773E1E4CF41E653E16DE64E
:103C100073E1DFCF4DE653E161E673E1DACF48EDC2
:103C200053E16EEC73E1D5CF4EEC53E168ED73E1F7
:103C3000D0CF85E08ECE8DE08CCE82E18ACE0F3D56
:103C4000FCE51F0709F446C009302DE5120709F409
:103C500044C001151C4509F047C00E94FA168FEFB9
:103C600094E3ECE081509040E040E1F700C00000B8
:103C7000F89481E08093E00080E28093D800109275
:103C8000C9008FE19EE40197F1F700C000001DBA62
:103C9000109268001CBC10BE1FBA10927A001092DD
:103CA0006E0010926F0010927100109272001092CC
:103CB000C9001092BC0014B817B81AB81DB810BAD1
:103CC0001092BC0015B818B81BB81EB811BA0C94E5
:103CD000003F3DCD0E94F0103ACD80916D0591E0FE
:103CE000892780936D0533CDF701008111819923D8
:103CF00009F43DC0C8010E94F70ED82E682FC801F4
:103D00000E94BF07B8018D2D0E945B0D8C01882E8B
:103D1000F701A580A2944FE0A422D280D110109286
:103D2000180580911605877099F0DD2089F0812FA4
:103D3000807F803421F080E2800F883048F082E07C
:103D40000E94B716809116058770CC24C394811108
:103D5000C12CB12EB2943FE0B322FBE0FB1508F476
:103D600040C0EB2DF0E0ED53F14D0C945A2CC801FE
:103D70000E949607D82EC6CF212F2F70A22E107F1B
:103D800019F0A29420EFA222DD20C9F0AA2069F048
:103D900080E2800F883010F081100BC080911905EF
:103DA000A82AA09219050E945107802F0E94421A4A
:103DB00018C080911805A82AA0921805F4CF802F6A
:103DC0000E94091AAA2069F0A094005E083010F041
:103DD000811046C080911905A822A09219050E9461
:103DE00051072B2D2850330B2430310510F40E943D
:103DF0003808CC20A9F08091160580FD11C0F7018C
:103E000012828595859585950E94CF16C7010E94DF
:103E10001E1B809116058595859585950E949416A3
:103E200085E0F701DE01119601900D928A95E1F788
:103E300089819A810E9496079A81E981F0E026E0C3
:103E4000929FE00DF11D112434E5839FE00DF11DDB
:103E50001124EE0FFF1FEA55FD4F8591949110CC70
:103E600080911805A822A0921805B9CF312F3F7074
:103E7000932E107F103219F0929490EF992288209F
:103E800041F081E0881631F1DD2079F1AA2041F17D
:103E90008CCFDD2091F090911A05892D892BA110EE
:103EA00003C00E9402089DCFE1E0AE12FACF98173E
:103EB00009F497CF80931A0594CFA11006C00E94F1
:103EC0004B07892D0E94F7078CCFF1E0AF1609F45C
:103ED00088CFF5CFDD2031F021E02A1508F481CF1D
:103EE000892DDFCFA1107DCFECCFAA2051F339E38C
:103EF00083128FC18FEF97EEE3E081509040E04056
:103F0000E1F700C0000085C1812F869586958370FA
:103F100061F0813009F065CFC8019370D11002C003
:103F200090E080E00E940C085CCFC8019370D11033
:103F300002C090E080E00E94220853CF802FDD2055
:103F400029F00E9428060E9418164BCF0E94610596
:103F5000FACF812F837009F066C0D11042CF802F35
:103F6000829586958770880F880F602F6F70462E18
:103F7000512C712C612C082E04C0440C551C661C5D
:103F8000771C0A94D2F740E050E0BA0104FF0FC05A
:103F90004FE050E060E070E004C0440F551F661F22
:103FA000771F8A95D2F74095509560957095812F2F
:103FB000869586958370823019F1D8F400911B059F
:103FC00010911C0520911D0530911E05813069F06E
:103FD0004429552966297729CB01BA016023712329
:103FE000822393230E94F016FCCE402A512A622A93
:103FF000732ACB01BA016429752986299729F2CF42
:10400000442955296629772900911B0510911C0523
:1040100020911D0530911E05CB01BA016027712743
:1040200082279327DFCF8695DD2011F0812F8170C5
:10403000882309F4D6CE802F829586958770880FC5
:10404000880F602F6F70462E512C712C612C082E1A
:1040500004C0440C551C661C771C0A94D2F740E03F
:1040600050E0BA0104FF0FC04FE050E060E070E0A4
:1040700004C0440F551F661F771F8A95D2F74095DD
:10408000509560957095812F8695869583708230C6
:1040900019F1D8F400916705109168052091690520
:1040A00030916A05813069F04429552966297729BC
:1040B000CB01BA0160237123822393230E945916F6
:1040C00090CE402A512A622A732ACB01BA01642970
:1040D000752986299729F2CF4429552966297729F8
:1040E00000916705109168052091690530916A0576
:1040F000CB01BA016027712782279327DFCF1F707A
:10410000DD2029F0812F0E94CF16802FCACE802F6C
:104110000E94F707812F0E94941663CE802FF2EF42
:104120008F1609F44EC0F81578F020EF821619F1B9
:1041300031EF831609F43DC0DD2009F465C0A110FC
:1041400034CE812F8F713AC093EF891609F43EC0A7
:10415000E4EF8E12F1CFDD2009F44BC01F71812FE7
:104160000E94CF1628E0129FC00111248360809323
:104170001605812F23C0DD20B9F0A11032CE1F71AA
:1041800061E070E080E090E004C0660F771F881F58
:10419000991F1A95D2F70091670510916805209133
:1041A000690530916A05A6CFF1E0FA1508F419CE39
:1041B000E6CF812F8F71DD2009F4ADCF0E94CF169D
:1041C00010CE812F8F71DD20C9F3A5CF60E070E0A4
:1041D000CB01DD2009F472CF1F7161E070E080E057
:1041E00090E004C0660F771F881F991F1A95D2F7B9
:1041F00065CF81E00E94B71631E03A1508F0F1CDA5
:1042000082E00E94B716EDCDAA2039F0893309F477
:1042100071CE802F0E94091AE4CD812F8F717BCF40
:104220001982F70182818111A0CA82E18A83F70194
:1042300080818B8381818C838EEF8D8365E0CE01BD
:1042400001960E944A0554CA85E0DE01119601904C
:104250000D928A95E1F7F701228189819A812111D6
:1042600025CA0E949607082F29CA06311C4509F065
:104270003BCD8091A60469E2811165E388E193E07A
:104280000E949F0694CC8272F801E35CFC45E43105
:10429000F10508F0D4CCE153F14D0C945A2C1F9346
:1042A000CF93DF938091AC04807FA9F48091A9041F
:1042B000882389F08091DE04D091AD046091A70439
:1042C0007091A804A091AA04B091AB04C62FC72393
:1042D00016E0D81304C0DF91CF911F91089590E0AC
:1042E000109711F0CF3F19F401968770F2CF189F05
:1042F0009001199F300D1124F901E255FB4F4181C6
:104300004713F2CF40814613EFCF42814111ECCFEA
:10431000438154814A1B5B0B483C510528F780912F
:10432000AC048F7080618093AC04F901ED54FB4FB5
:1043300080818F708061808387EA94E00E941E1BD9
:10434000DF91CF911F910C94ED07AF92BF92CF9266
:10435000DF92EF92FF920F931F93CF93DF93CDB72E
:10436000DEB761970FB6F894DEBF0FBECDBF8C01EC
:1043700085E0F801DE011D9601900D928A95E1F726
:10438000F80180819181E28027EAA22E24E0B22EFA
:104390006091AA047091AB046115710509F43EC1E6
:1043A0003091A7044091A804232F24232F3F09F420
:1043B00035C1C380D480F090A904F601E61BF70B49
:1043C000FF2009F4FBC02091AC04522F507FE83C41
:1043D000F10508F0BBC0511178C0FE2C491321C073
:1043E00038131FC0E1101DC02F7020612093AC0452
:1043F000C5010E941E1B8091AC04F80185838F2D9E
:1044000061960FB6F894DEBF0FBECDBFDF91CF919E
:104410001F910F91FF90EF90DF90CF90BF90AF90E2
:104420000895CD2829F0282F29232F3F09F014C102
:1044300020E0F22FF170DF2E20FF3DC02091DE043E
:104440004091AD0456E0241315C08D879E878D855D
:104450009E850E94390F292F22952F702230F8F067
:10446000243020F59F70F9F0F8019581907FD9F400
:10447000D12C1FC030E0529FF001539FF00D11244A
:10448000E255FB4F6181961306C06081861303C01D
:104490006281E61210C02F5F3F4F2770D4CF9F700C
:1044A00011F0882329F3805E883010F3C8010E9440
:1044B0001E1BFD2CA4CFEE2009F4A1CF8091AC04EB
:1044C00081608093AC04F12C9ACF491312C0381349
:1044D00010C0E1100EC0F8012583C8010E941E1B08
:1044E00086E0F801A7EAB4E001900D928A95E1F721
:1044F00086CF8D879E878D859E850E94430F88235A
:1045000009F1EE20F9F08091AC04803270F0209136
:10451000A7043091A80438872F831986DB86CA86C2
:104520008C87CE0107960E941E1B86E0F801A7EA41
:10453000B4E001900D928A95E1F70E944F21FF248B
:10454000F3945DCFC8010E941E1BF9CF51110AC020
:1045500087EA94E00E941E1B86E0F50111928A957D
:10456000E9F7B1CF49130FC038130DC0E1100BC0EC
:10457000F8012583C8010E941E1B86E0F5011192F7
:104580008A95E9F73CCF8D879E878D859E850E9411
:10459000430F8823B9F2EE20A9F28091AC04803257
:1045A00020F22091A7043091A8043A8329831B822A
:1045B000DD82CC828E83CE010196B5CFE83CF10539
:1045C000E0F6FE2CEE2009F4BDCF491316C03813D7
:1045D00014C08091AC0480FD83CF982F907F09F4A4
:1045E0007FCFF8018583903F09F477CF982F907F94
:1045F000905F8F70892B858370CF8D879E878D8587
:104600009E850E94430F811190CF8091AC04816000
:104610008093AC04C8010E941E1BF1CEEE2009F469
:1046200091CF8D879E878D859E850E94430FF82EA2
:10463000882309F487CF86E0F801A7EAB4E0019067
:104640000D928A95E1F78091A7049091A8040E94A9
:10465000390F0E944F21D3CE21E02E25EACE1F93A1
:10466000CF93DF93CDB7DEB767970FB6F894DEBF71
:104670000FBECDBF4B8B5C8B6D8B7E8B8F8B1A8A65
:10468000198A85E0FE017396DE011D9601900D9258
:104690008A95E1F786E0FE013D96DE0117960190CE
:1046A0000D928A95E1F7CE0107960E94A52181110E
:1046B00012C086E0FE013796DE01119601900D9240
:1046C0008A95E1F78A859B85892B29F08F819885CA
:1046D00089238F3FB1F516E08091DE049091AD04FF
:1046E00089131DC067960FB6F894DEBF0FBECDBF0D
:1046F000DF91CF911F91089596E0929FD001939FF3
:10470000B00D1124A255BB4FFE01319601900D92C0
:104710009A95E1F78093AD040E94ED07DCCF819F6D
:10472000C001112482559B4F0E94A5218823D1F2FC
:104730008091DE0490E00196877099278093DE04D3
:10474000CBCF2091AD0430E0C90101968770992745
:104750004091DE044817190679F60E94FA16109265
:10476000AD041092DE0486E0E7EAF4E0DF011D927A
:104770008A95E9F7B0CF8F929F92AF92BF92CF9276
:10478000DF92EF92FF920F931F93CF93DF9380916D
:104790000C0190910D01892BA1F0809139038F5F5D
:1047A0008093390381110DC00E940F1490E0909303
:1047B0000D0180930C01892B21F40E9468100E9446
:1047C000F313EAE28E2EE5E09E2E740100E010E085
:1047D00077E0C72EC10E812F0E9486148C2D0E9477
:1047E0008614812F0E94DA14E70199917E01D12C61
:1047F000891729F0FE0131978083DD24D3948C2D15
:104800000E94DA14F7019681891709F47CC0868327
:1048100081E08D29082B0E94B00F1F5F1730C1F671
:104820000E940C1660913B0370913C0390933C03F3
:1048300080933B0320913A0330E0261B370B820F15
:10484000931F6BEF70E00E94322CE82E392F182F47
:1048500080933A03F0903E03FF2009F41AC31092AC
:104860003E03E0912405F0912505AF01425F5F4FC3
:1048700020E06BEFB62E6BEF70E0A191AB3FA1F0A3
:10488000CA2ED12C8E2D932F1A1708F43EC08C19E6
:104890009D09092E000CAA0BBB0B4E97A105B10573
:1048A000D0F1DF011197BC92E417F50731F720939F
:1048B0003E03011102C02111EEC210923D03A091EE
:1048C0002405B091250590913E03EEE3F5E04CE41C
:1048D00055E080E03191E40129914E01321751F009
:1048E0003C913B3FD1F41C93BF0161507109EB0136
:1048F000288391E011964E175F0761F790933E036E
:1049000080933D03CCC280E084CFDB01AC19BD09AC
:104910008A0F9B1FBECF2F2DC7CF81E0EBCF109208
:1049200019014093A0055093A1056093A2057093CF
:10493000A30581E080931C01E0C280910B01C1E0DE
:1049400018130BC02091A405237080910A0190E0F8
:10495000C1E02817190609F4C0E0C170C0931B011B
:10496000193140F4E12FF0E0ED51F14D0C945A2C47
:10497000C11102C0C0E027C040E060E080E00E94BA
:104980008E08F8CF80911901C82FCC0FCC0FC80F1B
:1049900045E0F42EFC0EEF2CD0E3DF1510F430E3ED
:1049A000E32E6091A5057091A6058091A7050E9450
:1049B000FF0AD62EC72EB82ED0E0CE15B0F0C1E03B
:1049C000FFE2FF15B8F2809119018F5F8093190102
:1049D000C11193C282E080931C0180911B0181115F
:1049E0008CC211118AC283E0A5CFFE01E851FD4FB0
:1049F000808190911A01892331F02B2D4D2D6C2D42
:104A0000CE010E9490082196D8CF80911901C82F1D
:104A1000CC0FCC0FC80F25E0F22EFC0EEF2C20E3BC
:104A20002F1510F490E3E92EC090A605D090A705AD
:104A3000D091A5056D2F7C2D8D2D0E94FF0AB62EDD
:104A4000A72E982E6091A8056D0F7C2D8D2D0E94AC
:104A5000FF0AD62EC72E882ED0E0CE1530F0C1E04A
:104A60008FE28F1508F0AFCF85CFFE01E851FD4FE3
:104A7000908180911A01892359F0282D4D2D6C2D9C
:104A800090FD03C0292D4B2D6A2DCE010E94900868
:104A90002196E3CF80911901C82FCC0FCC0FC80FFE
:104AA00085E0F82EFC0EDF2C90E39F1510F4D0E388
:104AB000DD2EC090A605B090A7052091A805B0E412
:104AC000EB2E3E2D329F312D1124E32ED0E0CD155B
:104AD00030F0C1E09FE29F1508F075CF4BCFFE018B
:104AE000E851FD4F808190911A018923B9F0FE01B0
:104AF000EE0FFF1FE757FD4F808182958F70609109
:104B0000A5058E9D600D11247C2D8B2D0E94FF0A22
:104B1000462F282F672FCE010E9490082196D7CFCD
:104B200080911901C82FCC0FCC0FC80FE5E0FE2EE5
:104B3000FC0EDF2CD0E3DF1510F470E3D72EC0900D
:104B4000A605B090A7052091A80560E4E62E3E2DAD
:104B5000329F312D1124E32ED0E0CD1508F0B9CFCE
:104B6000FE01E851FD4F808190911A018923D9F00F
:104B7000FE01EE0FFF1FE857FD4F6081E69EB0017A
:104B8000112455E0759567955A95E1F78091A50533
:104B9000680F7C2D8B2D0E94FF0A462F282F672F30
:104BA000CE010E9490082196D8CF80911901C82F7C
:104BB000CC0FCC0FC80F35E0F32EFC0EEF2CD0E35A
:104BC000DF1510F420E3E22ED090A505D091A605C4
:104BD000C090A7056091A805669566956695809139
:104BE000A0059091A1050E94F50A0E947E0A8058B6
:104BF00087FD8195880F282F3C2D239F212D11247F
:104C0000822F6D2D7D2F0E94FF0AD62EC72EB82E23
:104C1000D0E0CE1508F05DCFFE01E851FD4F808158
:104C200090911A01892331F02B2D4D2D6C2DCE0141
:104C30000E9490082196EDCF89E899E00E94CE0C61
:104C4000C82FC1CE8FE599E0F9CF80E69AE00E94A7
:104C5000720CF6CF81E49AE0FACF86E29AE00E94E5
:104C6000F50BEECF8AE09AE0FACF8DE599E0E6CF3A
:104C700084E599E0E3CF8BE499E0E0CF82E399E02B
:104C8000DDCF84E299E0EBCF8DEC9AE0E0CF89EFC5
:104C900099E0DDCF85EE99E0E2CF87EF98E00E94C2
:104CA000930BCECF89EC98E0FACF82E998E0F7CF6A
:104CB000C1111EC06091A80520E1620F08F46FEFDA
:104CC0008091A0059091A1050E94F50A6AE070E02C
:104CD0000E94322C892B09F04DCE0E94AC2C60E34F
:104CE00070E00E94462C60911A010E9406136BCE60
:104CF00080911901C82FCC0FCC0FC80F95E0D92E89
:104D0000DC0E8D2DD0E3DD1508F480E3D0E0E82E35
:104D1000F12CCE15DF0534F0C1E0EFE2ED1508F01F
:104D200052CE28CE60911A01CE010E940613219620
:104D3000F0CFC1111EC06091A80520E1620F08F4F8
:104D40006FEF8091A0059091A1050E94F50A65E0A2
:104D500070E00E94322C892B09F00CCE0E94AC2C02
:104D600060E370E00E94462C60911A010E94E412F8
:104D70002ACE80911901C82FCC0FCC0FC80F85E027
:104D8000D82EDC0E8D2DF0E3FD1508F480E3D0E085
:104D9000E82EF12CCE15DF0534F0C1E02FE22D1501
:104DA00008F011CEE7CD60911A01CE010E94E41205
:104DB0002196F0CF10930B018091A405837080930E
:104DC0000A010E9490110FCE4091A0055091A105BB
:104DD0006091A2057091A3052FB7F89480911F05EB
:104DE00090912005A0912105B09122052FBF841B31
:104DF000950BA60BB70B4A97A105B10508F47DC02A
:104E000010921C017AC09170892B09F488C080919E
:104E10004403909145038130984780F010926D05CE
:104E200060916705709168058091690590916A05A8
:104E30000E947C0F1092450310924403809144031A
:104E40009091450301969093450380934403802FEE
:104E5000DF91CF911F910F91FF90EF90DF90CF9056
:104E6000BF90AF909F908F9008950E94760F5EC084
:104E7000892B69F3109245031092440360916705F2
:104E8000709168058091690590916A050E947C0F78
:104E9000DECF011112CD80913D0381110ECD8FB770
:104EA000F89440911F055091200560912105709163
:104EB00022058FBF40933F0350934003609341030B
:104EC0007093420380913D0510E0811108C08091EC
:104ED000A405182F137019F0182F169516958091A8
:104EE0001C01813009F429CD882309F418CD8230C2
:104EF00009F460CF833009F467CF80914403909127
:104F0000450320916D05222309F4B2CF009709F0E3
:104F10007ACF0E946D0F0E946A0F0E94670FC091A6
:104F20004303CC2309F4A1CF0E946A0F81E0C82774
:104F3000C09343036CCFCDB7DEB7C955D1090FB6C7
:104F4000F894DEBF0FBECDBF84B7877F84BF0FB696
:104F5000F894A89580916000886180936000109219
:104F600060000FBE80E890E00FB6F8948093610077
:104F7000909361000FBE85B7806885BF85B7806854
:104F800085BF0E945C030E9429048091E200846036
:104F90008093E2007894809193058823A1F010918A
:104FA000E9001F709091EC00892F817090FD80E8DE
:104FB000182B1092E9008091E80083FD0E940F17E2
:104FC0001F701093E90082E084BD93E095BD9AEFD5
:104FD00097BD80936E000E940F1490E090930D0196
:104FE00080930C010E94B00F0E94BF0FEAE2F5E02F
:104FF0006EE3662E65E0762E88E395E0D30111928C
:105000001D928E179F07D9F78EE090E00E94BC2C6E
:105010008093240590932505FC010E962BEF219398
:105020008E179F07E1F790E080E00E94052E8F3EEB
:105030009E4F11F00E94F0100E94F31389EA8093B2
:10504000800089E08093810024982C983F988AB151
:105050008F7C8AB96E98479A8BB180638BB9769AA8
:105060008FE090E00E94FF2D609326057093270546
:10507000809328059093290567708FEF869FB00174
:1050800011247595679575956795772770938900B5
:105090006093880070938B0060938A0070938D00FA
:1050A00060938C009091260594FFB4C180931A01FF
:1050B0000E94681090E080E00E94052E8F3E9E4F77
:1050C00011F00E94F01082E090E00E94F72D809392
:1050D00058050E94E210909339058093380583E0CB
:1050E00090E00E94F72D682F70E090E080E00E9431
:1050F000F01660916705709168058091690590913F
:105100006A050E947C0F8091A405837011F41092AF
:105110001C018091A4058C7F81608093A4058EE0A2
:1051200091E090933B0580933A0528E1C22ED12C63
:105130003CE4A32E35E0B32E41E4842E912C8C0E5A
:105140009D1E82E0880E911C809193058530A1F40C
:1051500080E4F82E9EE0E92EE60C5524539400E1FD
:1051600012E180919305853009F457C10E94FA1627
:105170000E94380810923D050E94BB23E9E5F5E046
:10518000AEE3B5E010E000E0302F8D9121912817BB
:1051900009F494C190E0FF24F3942827422F4F2173
:1051A00009F487C161969FAF619762963FAF62979E
:1051B0008F2191E009F490E063969FAF63970E947E
:1051C0000C168160782F65969FAF8EAF65976196BC
:1051D0004FAD619762965FAD629763966FAD6397CF
:1051E00065968FAD65970E942F23F801E75AFA4F15
:1051F0008081F826F08285E0E2E5F5E0DE01119697
:1052000001900D928A95E1F7F0905305E0905405D6
:1052100010915505009156051092530510925405B2
:1052200010925505109256058F2D8E2909F448C00D
:1052300080915005909151050E9490069C0190919B
:105240004F05992309F403C225313105C8F19F3F69
:1052500019F09F5F90934F05FF2059F00E940406BC
:105260009FEF1F140CF491E0899F802D11248093EF
:105270005305EE2059F00E9404069FEF1E140CF413
:1052800091E0899F802D112480935405309153051E
:105290003323B1F020915405222391F045EB3403E0
:1052A000C0011124992309F430C19093530545EBB3
:1052B000240390011124332309F42BC130935405A6
:1052C000812F802B09F448C080914D0590914E05A7
:1052D0000E9490069C0190914C05992309F4B2C15B
:1052E00025313105C8F19F3F19F09F5F90934C0520
:1052F000112359F00E94E4059FEF11160CF491E080
:10530000899F802D112480935505002359F00E9418
:10531000E4059FEF10160CF491E0899F802D112475
:1053200080935605309155053323B1F020915605F1
:10533000222391F045EB3403C0011124992309F491
:10534000ECC09093550545EB2403900111243323C1
:1053500009F4E7C0309356058091530590915405A8
:10536000892B90915505892B90915605892B11F029
:105370000E94181685E0FE013196A2E5B5E0019085
:105380000D928A95E1F70E94380890915705891788
:1053900021F00E943808809357058091930584304E
:1053A00009F0D2CE85E08093E9008091E80082FF89
:1053B000CBCE8091E80090E085FF06C00E947B0381
:1053C000882309F4B2C091E08091E8008B77809344
:1053D000E800992309F4B8CE19811111C2C0809157
:1053E0006D05882309F4D8C010926D0581E0809383
:1053F0006C0522961FAE229723961FAE23978EEF41
:1054000024968FAF249763E0CE018F5B9F4F0E945D
:105410004A059ACE10921A014BCE40E060E080E03F
:105420000E948E0850923D0580919305843009F1C9
:1054300010923C050FB6F894A895C09260000FBE7C
:10544000F092600083B7817F846083BF83B78160FF
:1054500083BF7894889583B78E7F83BF0FB6F89407
:10546000A895809160008861809360001092600030
:105470000FBE80919205882309F473CE0E940F1409
:1054800090E090930D0180930C010E94B00F0E9458
:10549000BF0FEEE3F5E01192AE16BF06E1F70E94F2
:1054A000BB23EEE3F5E081918111B6C0EE12FBCF94
:1054B00058CE9F5FFF0C963009F070CE0F5F1F4FE4
:1054C0000E30110509F060CE8FEF66968FAF6697AC
:1054D00067968FAF679768961FAE68970E940C1605
:1054E0008160782F6A969FAF8EAF6A9766964FADB0
:1054F000669767965FAD679768966FAD68976A968F
:105500008FAD6A970E942F2376CE81E0809353055A
:10551000CECE81E080935405D3CE81E080935505B3
:1055200012CF81E08093560517CF00E410E0CE0142
:1055300001967C018091E80085FD0AC08091E80019
:105540008B778093E8000E947B03882399F33BCFFD
:105550008091F100F70181937F010150110951F70A
:1055600032CF1130C9F422961FAE229723961FAF77
:1055700023978CE0E0E2F1E0D40101900D928A954E
:10558000E1F78EEF60968FAF60976FE0CE018F5B93
:105590009F4F0E944A05D8CD80916C058823D1F198
:1055A000123041F01330F9F081E022968FAF22974C
:1055B00061E02ACF60916705709168058091690567
:1055C00090916A050E94FE0622961FAE22972396AE
:1055D0001FAF239724968FAF24978EEF25968FAF1A
:1055E000259764E011CF8A81813041F0882341F012
:1055F0008230D1F681E080936B0502C010926B057A
:1056000022961FAE229783E023968FAF2397809137
:105610006B05E0CF8FEFC9CF09BD19BD09B400FEFE
:10562000FDCF8091D8008F7D8093D8008091E000DD
:1056300082608093E0008091E00081FDFCCF0E94B9
:10564000FA168FCD2139314008F04FCE85CE232B6D
:1056500009F0FFCD35CE1F921FB61F9211248F93F4
:105660009F93AF93BF9380913C05811113C08091AC
:105670001F0590912005A0912105B091220541962A
:10568000A11DB11D80931F0590932005A0932105B6
:10569000B0932205BF91AF919F918F911F901FBE34
:1056A0001F9018951092B9008CE08093B80008956F
:1056B000EF92FF920F931F93CF93DF93182FEB017D
:1056C0001092BC0084EA8093BC000E940C167C01FE
:1056D0008091BC0087FF27C08091B900887F883007
:1056E00029F08091B900887F8031D9F51093BB00F3
:1056F00084E88093BC000E940C168C018091BC0051
:1057000087FF24C02091B900287F90E080E02831F5
:10571000B1F081E090E0203411F490E080E09195C8
:10572000819591090CC0CF3FDC0791F20E940C16C5
:105730008E199F098C179D0758F28EEF9FEFDF910E
:10574000CF911F910F91FF90EF900895CF3FDC070D
:10575000A9F20E940C16801B910B8C179D0770F20A
:10576000ECCF8FEF9FEFEBCF0F931F93CF93DF9390
:10577000EB018093BB0084E88093BC000E940C1670
:105780008C018091BC0087FF11C02091B900287F57
:1057900081E090E0283211F490E080E091958195CD
:1057A0009109DF91CF911F910F910895CF3FDC07B1
:1057B00041F30E940C16801B910B8C179D0708F378
:1057C0008EEF9FEFEECF0F931F93CF93DF93EC01FC
:1057D00084E88093BC000E940C168C018091BC0070
:1057E00087FF08C08091BB0090E0DF91CF911F91AF
:1057F0000F910895CF3FDC0789F30E940C16801BA0
:10580000910B8C179D0750F38EEF9FEFEECFCF9249
:10581000DF92EF92FF920F931F93CF93DF936B0171
:105820008A017901B9010E94582BE6010C0D1D1D5A
:10583000C017D10761F424E92093BC00DF91CF9118
:105840001F910F91FF90EF90DF90CF90089597FDFB
:10585000F2CFB70189910E94B42BEACF84E98093FB
:10586000BC000895AA1BBB1B51E107C0AA1FBB1FA8
:10587000A617B70710F0A61BB70B881F991F5A95DC
:10588000A9F780959095BC01CD01089597FB072E4F
:1058900016F4009407D077FD09D00E94322C07FC43
:1058A00005D03EF4909581959F4F08957095619530
:1058B0007F4F0895EE0FFF1F0590F491E02D09949E
:1058C0008F929F92AF92BF92CF92DF92EF92FF9210
:1058D000CF93DF93EC01688179818A819B81611587
:1058E00071058105910521F464E279ED8BE597E07E
:1058F0002DE133EF41E050E00E943F2E49015A0173
:105900009B01AC01A7EAB1E40E945E2E6B017C0111
:10591000ACEEB4EFA50194010E946C2EDC01CB012A
:105920008C0D9D1DAE1DBF1DB7FF03C00197A109C2
:10593000B04888839983AA83BB839F77DF91CF91F7
:10594000FF90EF90DF90CF90BF90AF909F908F909F
:1059500008950E94602C089580E091E00E94602CE0
:105960000895B0E0A0E08093000190930101A0931E
:105970000201B093030108950F931F93CF93DF9318
:105980008230910510F482E090E0E091AB05F09157
:10599000AC0530E020E0B0E0A0E0309799F42115AC
:1059A000310509F447C0281B390B24303105C0F5F7
:1059B0008A819B816115710571F1FB01938382835B
:1059C000FE0111C04081518102811381481759079E
:1059D000F8F04817590799F4109761F012960C9354
:1059E000129713961C933296CF01DF91CF911F919E
:1059F0000F9108950093AB051093AC05F4CF2115DA
:105A0000310519F04217530718F49A01BD01EF014F
:105A1000DF01F801C2CF9093AC058093AB05D0CFE6
:105A2000FE01E20FF31F81939193225031093983D4
:105A30002883DACF2091A9053091AA05232B41F4C0
:105A400020910601309107013093AA052093A90502
:105A500020910401309105012115310541F42DB744
:105A60003EB74091080150910901241B350B40912C
:105A7000A9055091AA054217530708F0B5CF241B7A
:105A8000350B2817390708F4AFCFBC016E5F7F4F85
:105A90002617370708F4A8CF640F751F7093AA055F
:105AA0006093A905FA01819391939ECFCF93DF93E1
:105AB0000097E9F0FC01329713821282C091AB0586
:105AC000D091AC05DE0130E020E02097A1F42081E8
:105AD0003181820F931F2091A9053091AA052817C3
